{
  "contractName": "CarAd",
  "abi": [
    {
      "constant": true,
      "inputs": [],
      "name": "isPaid",
      "outputs": [
        {
          "name": "",
          "type": "bool"
        }
      ],
      "payable": false,
      "stateMutability": "view",
      "type": "function"
    },
    {
      "constant": true,
      "inputs": [],
      "name": "downPayment",
      "outputs": [
        {
          "name": "",
          "type": "uint256"
        }
      ],
      "payable": false,
      "stateMutability": "view",
      "type": "function"
    },
    {
      "constant": true,
      "inputs": [],
      "name": "id",
      "outputs": [
        {
          "name": "",
          "type": "uint256"
        }
      ],
      "payable": false,
      "stateMutability": "view",
      "type": "function"
    },
    {
      "inputs": [
        {
          "name": "_sellerContract",
          "type": "address"
        },
        {
          "name": "_id",
          "type": "uint256"
        },
        {
          "name": "_downPayment",
          "type": "uint256"
        }
      ],
      "payable": false,
      "stateMutability": "nonpayable",
      "type": "constructor"
    },
    {
      "payable": true,
      "stateMutability": "payable",
      "type": "fallback"
    }
  ],
  "bytecode": "0x608060405234801561001057600080fd5b5060405160608061033a833981018060405281019080805190602001909291908051906020019092919080519060200190929190505050826000806101000a81548173ffffffffffffffffffffffffffffffffffffffff021916908373ffffffffffffffffffffffffffffffffffffffff1602179055508160018190555080600281905550505050610293806100a76000396000f300608060405260043610610057576000357c0100000000000000000000000000000000000000000000000000000000900463ffffffff168063209ebc08146101c357806356f50473146101f2578063af640d0f1461021d575b6000346002541415156100f8576040517f08c379a00000000000000000000000000000000000000000000000000000000081526004018080602001828103825260228152602001807f56616c7565206973206e6f7420657175616c20746f20646f776e207061796d6581526020017f6e7400000000000000000000000000000000000000000000000000000000000081525060400191505060405180910390fd5b6001600360006101000a81548160ff0219169083151502179055506000809054906101000a900473ffffffffffffffffffffffffffffffffffffffff1690508073ffffffffffffffffffffffffffffffffffffffff16632931a1086001546040518263ffffffff167c010000000000000000000000000000000000000000000000000000000002815260040180828152602001915050600060405180830381600087803b1580156101a857600080fd5b505af11580156101bc573d6000803e3d6000fd5b5050505050005b3480156101cf57600080fd5b506101d8610248565b604051808215151515815260200191505060405180910390f35b3480156101fe57600080fd5b5061020761025b565b6040518082815260200191505060405180910390f35b34801561022957600080fd5b50610232610261565b6040518082815260200191505060405180910390f35b600360009054906101000a900460ff1681565b60025481565b600154815600a165627a7a723058208f03019ff1229821fbd00ac2ac61c263f8fc90c1097e7cce2164837f72bfa7c90029",
  "source": "// SPDX-License-Identifier: MIT\r\npragma solidity ^0.4.24;\r\n\r\nimport \"./Seller.sol\";\r\n\r\ncontract CarAd {\r\n    \r\n    address sellerContractAddress;\r\n    uint public id;\r\n    uint public downPayment;\r\n    bool public isPaid;\r\n\r\n    constructor(Seller _sellerContract, uint _id, uint _downPayment) public {\r\n        sellerContractAddress = address(_sellerContract);\r\n        id = _id;\r\n        downPayment = _downPayment;\r\n    }\r\n\r\n    function() public payable {\r\n        require(downPayment == msg.value, \"Value is not equal to down payment\");\r\n        isPaid = true;\r\n        Seller seller = Seller(sellerContractAddress);\r\n        seller.markAsSold(id);\r\n    }\r\n}\r\n",
  "sourcePath": "C:\\Users\\17275\\udacity-blockchain-degree\\car-shop\\contracts\\CarAd.sol",
  "compiler": {
    "name": "solc",
    "version": "0.4.26+commit.4563c3fc.Emscripten.clang"
  },
  "schemaVersion": "3.4.3",
  "updatedAt": "2021-12-20T07:25:25.142Z",
  "devdoc": {
    "methods": {}
  },
  "userdoc": {
    "methods": {}
  }
}