{
  "contractName": "CarAd",
  "abi": [
    {
      "inputs": [
        {
          "internalType": "contract Seller",
          "name": "_sellerContract",
          "type": "address"
        },
        {
          "internalType": "uint256",
          "name": "_id",
          "type": "uint256"
        }
      ],
      "stateMutability": "nonpayable",
      "type": "constructor"
    },
    {
      "inputs": [],
      "name": "downPayment",
      "outputs": [
        {
          "internalType": "uint256",
          "name": "",
          "type": "uint256"
        }
      ],
      "stateMutability": "view",
      "type": "function"
    },
    {
      "inputs": [],
      "name": "id",
      "outputs": [
        {
          "internalType": "uint256",
          "name": "",
          "type": "uint256"
        }
      ],
      "stateMutability": "view",
      "type": "function"
    },
    {
      "inputs": [],
      "name": "isPaid",
      "outputs": [
        {
          "internalType": "bool",
          "name": "",
          "type": "bool"
        }
      ],
      "stateMutability": "view",
      "type": "function"
    },
    {
      "stateMutability": "payable",
      "type": "receive"
    }
  ],
  "bytecode": "0x608060405234801561001057600080fd5b5060405161063b38038061063b833981810160405281019061003291906100aa565b816000806101000a81548173ffffffffffffffffffffffffffffffffffffffff021916908373ffffffffffffffffffffffffffffffffffffffff160217905550806001819055505050610162565b60008151905061008f81610134565b92915050565b6000815190506100a48161014b565b92915050565b600080604083850312156100bd57600080fd5b60006100cb85828601610080565b92505060206100dc85828601610095565b9150509250929050565b60006100f18261010a565b9050919050565b6000610103826100e6565b9050919050565b600073ffffffffffffffffffffffffffffffffffffffff82169050919050565b6000819050919050565b61013d816100f8565b811461014857600080fd5b50565b6101548161012a565b811461015f57600080fd5b50565b6104ca806101716000396000f3fe6080604052600436106100385760003560e01c8063209ebc081461020257806356f504731461022d578063af640d0f14610258576101fd565b366101fd573460025414610081576040517f08c379a0000000000000000000000000000000000000000000000000000000008152600401610078906103e9565b60405180910390fd5b6001600360006101000a81548160ff02191690831515021790555060008060009054906101000a900473ffffffffffffffffffffffffffffffffffffffff1673ffffffffffffffffffffffffffffffffffffffff16346001546040516024016100ea9190610409565b6040516020818303038152906040527faa1ac729000000000000000000000000000000000000000000000000000000007bffffffffffffffffffffffffffffffffffffffffffffffffffffffff19166020820180517bffffffffffffffffffffffffffffffffffffffffffffffffffffffff83818316178352505050506040516101749190610397565b60006040518083038185875af1925050503d80600081146101b1576040519150601f19603f3d011682016040523d82523d6000602084013e6101b6565b606091505b50509050806101fa576040517f08c379a00000000000000000000000000000000000000000000000000000000081526004016101f1906103c9565b60405180910390fd5b50005b600080fd5b34801561020e57600080fd5b50610217610283565b60405161022491906103ae565b60405180910390f35b34801561023957600080fd5b50610242610296565b60405161024f9190610409565b60405180910390f35b34801561026457600080fd5b5061026d61029c565b60405161027a9190610409565b60405180910390f35b600360009054906101000a900460ff1681565b60025481565b60015481565b6102ab8161044b565b82525050565b60006102bc82610424565b6102c6818561042f565b93506102d6818560208601610461565b80840191505092915050565b60006102ef60178361043a565b91507f5075726368617365206e6f74207375636365737366756c0000000000000000006000830152602082019050919050565b600061032f60228361043a565b91507f56616c7565206973206e6f7420657175616c20746f20646f776e207061796d6560008301527f6e740000000000000000000000000000000000000000000000000000000000006020830152604082019050919050565b61039181610457565b82525050565b60006103a382846102b1565b915081905092915050565b60006020820190506103c360008301846102a2565b92915050565b600060208201905081810360008301526103e2816102e2565b9050919050565b6000602082019050818103600083015261040281610322565b9050919050565b600060208201905061041e6000830184610388565b92915050565b600081519050919050565b600081905092915050565b600082825260208201905092915050565b60008115159050919050565b6000819050919050565b60005b8381101561047f578082015181840152602081019050610464565b8381111561048e576000848401525b5050505056fea264697066735822122045de9d7584d38a1dfa20cd1b591db1d98ab0a77aa118062f2be3f8e8c714962764736f6c63430008000033",
  "immutableReferences": {},
  "source": "// SPDX-License-Identifier: MIT\r\npragma solidity 0.8.0;\r\n\r\nimport \"./Seller.sol\";\r\n\r\ncontract CarAd {\r\n    \r\n    Seller sellerContract;\r\n    uint public id;\r\n    uint public downPayment;\r\n    bool public isPaid;\r\n\r\n    constructor(Seller _sellerContract, uint _id) public {\r\n        sellerContract = _sellerContract;\r\n        id = _id;\r\n    }\r\n\r\n    receive() external payable {\r\n        require(downPayment == msg.value, \"Value is not equal to down payment\");\r\n        isPaid = true;\r\n        (bool success, ) = address(sellerContract).call{value: msg.value}(abi.encodeWithSignature(\"buy)uint)\", id));\r\n        require(success, \"Purchase not successful\");\r\n    }\r\n}\r\n",
  "sourcePath": "C:\\Users\\17275\\udacity-blockchain-degree\\car-shop\\contracts\\CarAd.sol",
  "compiler": {
    "name": "solc",
    "version": "0.8.0+commit.c7dfd78e.Emscripten.clang"
  },
  "schemaVersion": "3.4.3",
  "updatedAt": "2021-12-19T17:44:44.261Z",
  "devdoc": {
    "kind": "dev",
    "methods": {},
    "version": 1
  },
  "userdoc": {
    "kind": "user",
    "methods": {},
    "version": 1
  }
}