{
  "contractName": "Seller",
  "abi": [
    {
      "constant": true,
      "inputs": [],
      "name": "isSeeded",
      "outputs": [
        {
          "name": "",
          "type": "bool"
        }
      ],
      "payable": false,
      "stateMutability": "view",
      "type": "function"
    },
    {
      "constant": true,
      "inputs": [
        {
          "name": "",
          "type": "uint256"
        }
      ],
      "name": "cars",
      "outputs": [
        {
          "name": "car",
          "type": "address"
        },
        {
          "name": "isSold",
          "type": "bool"
        }
      ],
      "payable": false,
      "stateMutability": "view",
      "type": "function"
    },
    {
      "inputs": [],
      "payable": false,
      "stateMutability": "nonpayable",
      "type": "constructor"
    },
    {
      "constant": true,
      "inputs": [],
      "name": "getCars",
      "outputs": [
        {
          "name": "",
          "type": "bool[16]"
        }
      ],
      "payable": false,
      "stateMutability": "view",
      "type": "function"
    },
    {
      "constant": false,
      "inputs": [
        {
          "name": "ids",
          "type": "uint256[16]"
        },
        {
          "name": "downPayments",
          "type": "uint256[16]"
        }
      ],
      "name": "setCar",
      "outputs": [],
      "payable": false,
      "stateMutability": "nonpayable",
      "type": "function"
    },
    {
      "constant": false,
      "inputs": [
        {
          "name": "carId",
          "type": "uint256"
        }
      ],
      "name": "markAsSold",
      "outputs": [],
      "payable": true,
      "stateMutability": "payable",
      "type": "function"
    }
  ],
  "bytecode": "0x608060405234801561001057600080fd5b50336000806101000a81548173ffffffffffffffffffffffffffffffffffffffff021916908373ffffffffffffffffffffffffffffffffffffffff160217905550610a3d806100606000396000f30060806040526004361061006d576000357c0100000000000000000000000000000000000000000000000000000000900463ffffffff1680630ffe54271461007257806317c392861461009d5780632931a108146100c8578063818ab419146100e4578063f7746e361461010d575b600080fd5b34801561007e57600080fd5b5061008761014b565b6040516100949190610579565b60405180910390f35b3480156100a957600080fd5b506100b261015e565b6040516100bf919061055d565b60405180910390f35b6100e260048036036100dd91908101906104ad565b61023c565b005b3480156100f057600080fd5b5061010b6004803603610106919081019061046f565b61026d565b005b34801561011957600080fd5b50610134600480360361012f91908101906104ad565b610360565b604051610142929190610594565b60405180910390f35b600260009054906101000a900460ff1681565b6101666103b1565b600080600090505b600f8110156101d3576001600082815260200190815260200160002060000160149054906101000a900460ff1682826010811015156101a957fe5b602091828204019190066101000a81548160ff02191690831515021790555060018101905061016e565b81601080602002604051908101604052809291908260108015610230576020028201916000905b82829054906101000a900460ff161515815260200190600101906020826000010492830192600103820291508084116101fa5790505b50505050509250505090565b600180600083815260200190815260200160002060000160146101000a81548160ff02191690831515021790555050565b60008060008092505b601083101561033e57848360108110151561028d57fe5b60200201519150308285856010811015156102a457fe5b60200201516102b16103d5565b6102bd939291906105bd565b604051809103906000f0801580156102d9573d6000803e3d6000fd5b509050806001600084815260200190815260200160002060000160006101000a81548173ffffffffffffffffffffffffffffffffffffffff021916908373ffffffffffffffffffffffffffffffffffffffff1602179055508280600101935050610276565b6001600260006101000a81548160ff0219169083151502179055505050505050565b60016020528060005260406000206000915090508060000160009054906101000a900473ffffffffffffffffffffffffffffffffffffffff16908060000160149054906101000a900460ff16905082565b61020060405190810160405280601090602082028038833980820191505090505090565b60405161033a806106ca83390190565b600082601f83011215156103f857600080fd5b601061040b61040682610621565b6105f4565b9150818385602084028201111561042157600080fd5b60005b838110156104515781610437888261045b565b845260208401935060208301925050600181019050610424565b5050505092915050565b6000610467823561069b565b905092915050565b600080610400838503121561048357600080fd5b6000610491858286016103e5565b9250506102006104a3858286016103e5565b9150509250929050565b6000602082840312156104bf57600080fd5b60006104cd8482850161045b565b91505092915050565b6104df8161064d565b6104e882610643565b60005b8281101561051a576104fe858351610521565b61050782610658565b91506020850194506001810190506104eb565b5050505050565b61052a81610685565b82525050565b610539816106a5565b82525050565b610548816106b7565b82525050565b61055781610691565b82525050565b60006102008201905061057360008301846104d6565b92915050565b600060208201905061058e6000830184610521565b92915050565b60006040820190506105a96000830185610530565b6105b66020830184610521565b9392505050565b60006060820190506105d2600083018661053f565b6105df602083018561054e565b6105ec604083018461054e565b949350505050565b6000604051905081810181811067ffffffffffffffff8211171561061757600080fd5b8060405250919050565b600067ffffffffffffffff82111561063857600080fd5b602082029050919050565b6000819050919050565b600060109050919050565b6000602082019050919050565b600073ffffffffffffffffffffffffffffffffffffffff82169050919050565b60008115159050919050565b6000819050919050565b6000819050919050565b60006106b082610665565b9050919050565b60006106c282610665565b90509190505600608060405234801561001057600080fd5b5060405160608061033a833981018060405281019080805190602001909291908051906020019092919080519060200190929190505050826000806101000a81548173ffffffffffffffffffffffffffffffffffffffff021916908373ffffffffffffffffffffffffffffffffffffffff1602179055508160018190555080600281905550505050610293806100a76000396000f300608060405260043610610057576000357c0100000000000000000000000000000000000000000000000000000000900463ffffffff168063209ebc08146101c357806356f50473146101f2578063af640d0f1461021d575b6000346002541415156100f8576040517f08c379a00000000000000000000000000000000000000000000000000000000081526004018080602001828103825260228152602001807f56616c7565206973206e6f7420657175616c20746f20646f776e207061796d6581526020017f6e7400000000000000000000000000000000000000000000000000000000000081525060400191505060405180910390fd5b6001600360006101000a81548160ff0219169083151502179055506000809054906101000a900473ffffffffffffffffffffffffffffffffffffffff1690508073ffffffffffffffffffffffffffffffffffffffff16632931a1086001546040518263ffffffff167c010000000000000000000000000000000000000000000000000000000002815260040180828152602001915050600060405180830381600087803b1580156101a857600080fd5b505af11580156101bc573d6000803e3d6000fd5b5050505050005b3480156101cf57600080fd5b506101d8610248565b604051808215151515815260200191505060405180910390f35b3480156101fe57600080fd5b5061020761025b565b6040518082815260200191505060405180910390f35b34801561022957600080fd5b50610232610261565b6040518082815260200191505060405180910390f35b600360009054906101000a900460ff1681565b60025481565b600154815600a165627a7a723058208f03019ff1229821fbd00ac2ac61c263f8fc90c1097e7cce2164837f72bfa7c90029a265627a7a72305820c0c7ab2cad1acc8f2771e806cb0e7ba8ea10c54bce358859b8478912b7fba3706c6578706572696d656e74616cf50037",
  "source": "// SPDX-License-Identifier: MIT\r\npragma solidity ^0.4.24;\r\npragma experimental ABIEncoderV2;\r\n\r\nimport \"./CarAd.sol\";\r\n\r\ncontract Seller {\r\n    struct Car {\r\n        CarAd car;\r\n        bool isSold;\r\n    }\r\n    address owner;\r\n    mapping(uint => Car) public cars;\r\n    bool public isSeeded;\r\n\r\n    constructor() public {\r\n        owner = msg.sender;\r\n    }\r\n\r\n    function getCars() public view returns(bool[16]) {\r\n        bool[16] carsToReturn;\r\n        for(uint i = 0; i < 15; i += 1) {\r\n            carsToReturn[i] = cars[i].isSold;\r\n        }\r\n        return carsToReturn;\r\n    }\r\n\r\n    function setCar(uint[16] ids, uint[16] downPayments) public {\r\n        for (uint i = 0; i < 16; i++) {\r\n            uint carId = ids[i];\r\n            CarAd carToSet = new CarAd(this, carId, downPayments[i]);\r\n            cars[carId].car = carToSet;\r\n        }\r\n        isSeeded = true;\r\n    }\r\n\r\n    function markAsSold(uint256 carId) public payable {\r\n        cars[carId].isSold = true;\r\n    }\r\n}\r\n",
  "sourcePath": "C:\\Users\\17275\\udacity-blockchain-degree\\car-shop\\contracts\\Seller.sol",
  "compiler": {
    "name": "solc",
    "version": "0.4.26+commit.4563c3fc.Emscripten.clang"
  },
  "schemaVersion": "3.4.3",
  "updatedAt": "2021-12-20T07:25:26.904Z",
  "networkType": "ethereum",
  "devdoc": {
    "methods": {}
  },
  "userdoc": {
    "methods": {}
  }
}