{
  "contractName": "Seller",
  "abi": [
    {
      "inputs": [],
      "stateMutability": "nonpayable",
      "type": "constructor"
    },
    {
      "inputs": [
        {
          "internalType": "uint256",
          "name": "",
          "type": "uint256"
        }
      ],
      "name": "cars",
      "outputs": [
        {
          "internalType": "contract CarAd",
          "name": "car",
          "type": "address"
        },
        {
          "internalType": "bool",
          "name": "isSold",
          "type": "bool"
        }
      ],
      "stateMutability": "view",
      "type": "function",
      "constant": true
    },
    {
      "inputs": [],
      "name": "getCars",
      "outputs": [
        {
          "components": [
            {
              "internalType": "contract CarAd",
              "name": "car",
              "type": "address"
            },
            {
              "internalType": "bool",
              "name": "isSold",
              "type": "bool"
            }
          ],
          "internalType": "struct Seller.Car[]",
          "name": "",
          "type": "tuple[]"
        }
      ],
      "stateMutability": "view",
      "type": "function",
      "constant": true
    },
    {
      "inputs": [
        {
          "internalType": "uint256",
          "name": "carId",
          "type": "uint256"
        }
      ],
      "name": "markAsSold",
      "outputs": [],
      "stateMutability": "payable",
      "type": "function",
      "payable": true
    }
  ],
  "bytecode": "0x608060405234801561001057600080fd5b50336000806101000a81548173ffffffffffffffffffffffffffffffffffffffff021916908373ffffffffffffffffffffffffffffffffffffffff16021790555061050d806100606000396000f3fe6080604052600436106100345760003560e01c806317c39286146100395780632931a10814610064578063f7746e3614610080575b600080fd5b34801561004557600080fd5b5061004e6100be565b60405161005b919061035d565b60405180910390f35b61007e60048036038101906100799190610253565b6101bc565b005b34801561008c57600080fd5b506100a760048036038101906100a29190610253565b6101ed565b6040516100b592919061037f565b60405180910390f35b60608060005b600f8110156101b457600160008281526020019081526020016000206040518060400160405290816000820160009054906101000a900473ffffffffffffffffffffffffffffffffffffffff1673ffffffffffffffffffffffffffffffffffffffff1673ffffffffffffffffffffffffffffffffffffffff1681526020016000820160149054906101000a900460ff161515151581525050828281518110610195577f4e487b7100000000000000000000000000000000000000000000000000000000600052603260045260246000fd5b60200260200101819052506001816101ad91906103e1565b90506100c4565b508091505090565b600180600083815260200190815260200160002060000160146101000a81548160ff02191690831515021790555050565b60016020528060005260406000206000915090508060000160009054906101000a900473ffffffffffffffffffffffffffffffffffffffff16908060000160149054906101000a900460ff16905082565b60008135905061024d816104c0565b92915050565b60006020828403121561026557600080fd5b60006102738482850161023e565b91505092915050565b6000610288838361032e565b60408301905092915050565b600061029f826103b8565b6102a981856103d0565b93506102b4836103a8565b8060005b838110156102e55781516102cc888261027c565b97506102d7836103c3565b9250506001810190506102b8565b5085935050505092915050565b6102fb81610437565b82525050565b61030a81610437565b82525050565b6103198161046d565b82525050565b6103288161046d565b82525050565b6040820160008201516103446000850182610310565b50602082015161035760208501826102f2565b50505050565b600060208201905081810360008301526103778184610294565b905092915050565b6000604082019050610394600083018561031f565b6103a16020830184610301565b9392505050565b6000819050602082019050919050565b600081519050919050565b6000602082019050919050565b600082825260208201905092915050565b60006103ec82610463565b91506103f783610463565b9250827fffffffffffffffffffffffffffffffffffffffffffffffffffffffffffffffff0382111561042c5761042b610491565b5b828201905092915050565b60008115159050919050565b600073ffffffffffffffffffffffffffffffffffffffff82169050919050565b6000819050919050565b60006104788261047f565b9050919050565b600061048a82610443565b9050919050565b7f4e487b7100000000000000000000000000000000000000000000000000000000600052601160045260246000fd5b6104c981610463565b81146104d457600080fd5b5056fea2646970667358221220c45f4a59a79b6ff9afe0b282dedeba484a510baf717ee9768e4928f978bc425064736f6c63430008000033",
  "immutableReferences": {},
  "source": "// SPDX-License-Identifier: MIT\r\npragma solidity 0.8.0;\r\n\r\nimport \"./CarAd.sol\";\r\n\r\ncontract Seller {\r\n    struct Car {\r\n        CarAd car;\r\n        bool isSold;\r\n    }\r\n    address owner;\r\n    mapping(uint => Car) public cars;\r\n\r\n\r\n    constructor() public {\r\n        owner = msg.sender;\r\n    }\r\n\r\n    function getCars() public view returns(Car[] memory) {\r\n        Car[] memory carsToReturn;\r\n        for(uint i = 0; i < 15; i += 1) {\r\n            carsToReturn[i] = cars[i];\r\n        }\r\n        return carsToReturn;\r\n    }\r\n\r\n    function markAsSold(uint256 carId) public payable {\r\n        cars[carId].isSold = true;\r\n    }\r\n}\r\n",
  "sourcePath": "C:\\Users\\17275\\udacity-blockchain-degree\\car-shop\\contracts\\Seller.sol",
  "compiler": {
    "name": "solc",
    "version": "0.8.0+commit.c7dfd78e.Emscripten.clang"
  },
  "schemaVersion": "3.4.3",
  "updatedAt": "2021-12-19T17:44:46.333Z",
  "networkType": "ethereum",
  "devdoc": {
    "kind": "dev",
    "methods": {},
    "version": 1
  },
  "userdoc": {
    "kind": "user",
    "methods": {},
    "version": 1
  }
}